:020000040800F2
:10000000704F0020990100085D5700082D2B000853
:1000100071560008FB0C0008B16C000800000000DD
:1000200000000000000000000000000001010008C6
:10003000451000080000000045010008A9680008FC
:10004000B3010008B3010008B3010008B3010008C0
:10005000B3010008B3010008B3010008B3010008B0
:10006000B3010008B3010008B3010008B3010008A0
:10007000B3010008B3010008B3010008B301000890
:10008000B3010008B3010008B3010008B301000880
:10009000B3010008B3010008B3010008B301000870
:1000A000B3010008B3010008B3010008B301000860
:1000B000B3010008B3010008B3010008B301000850
:1000C000B3010008B3010008B3010008B301000840
:1000D000B3010008996C0008A56C0008B301000882
:1000E000B3010008B3010008B3010008DFF80CD029
:1000F00000F006FD00480047217D0008704F0020F9
:10010000224B19680868B0E8F00F80F30988BFF344
:100110006F8F4FF0000080F311884EF00D0E704786
:100120000000000006480068006880F3088862B696
:1001300061B6BFF34F8FBFF36F8F00DF00BF00BF0B
:1001400008ED00E0EFF30980BFF36F8F0F4B1A68E3
:1001500020E9F00F106008B54FF0500080F31188CF
:10016000BFF34F8FBFF36F8F08F0E8FB4FF0000035
:1001700080F31188BDE8084019680868B0E8F00FFE
:1001800080F30988BFF36F8F704700BFEC12002027
:10019000EFF3058070470000064880470648004797
:1001A000FEE7FEE7FEE7FEE7FEE7FEE7FEE7FEE727
:1001B000FEE7FEE755690008ED000008202A04DB91
:1001C000203A21FA02F00021704721FA02F3D040D0
:1001D000C2F12002914008431946704710B5431AF6
:1001E000934209D28318881803E010F8011D03F820
:1001F000011D521EF9D210BD40EA01039B0703D036
:1002000009E008C9121F08C0042AFAD203E011F855
:10021000013B00F8013B521EF9D210BDD2B201E001
:1002200000F8012B491EFBD270470022F6E710B5FB
:1002300013460A4604461946FFF7F0FF204610BD54
:10024000421E12F8013F002BFBD111F8013B02F8CE
:10025000013B002BF9D1704730B505462A460B46C5
:1002600012F8010B13F8014B08B1A042F8D01CB1F1
:10027000002802D06D1CF1E7284630BD421C10F862
:10028000011B0029FBD1801A7047F0B480EA0102FB
:10029000D40F4200B2EB410F02D20246084611468B
:1002A0004A0042D0C30DDDB2C1F3C752AD1A202DB2
:1002B00035DAC1F3160141F4000204B15242C5F12E
:1002C000200602FA06F12A411044B3EBD05F23D096
:1002D000C4B1012DA0EBC35009DCF0BC4FF00042CB
:1002E00002EAC352DBB200F5000000F04EBB400052
:1002F00000F1807000EBC350A0F1807040EAD17033
:10030000490009E0490841EAC071A0EBC35000F57B
:100310000000400800EBC350F0BC00F02DBB614270
:10032000012202EB4101001BF6E7F0BC704781F0AF
:100330000041AAE780F00040A7E780EA010210B57B
:1003400002F00043400022D04A001FD0010E01EB12
:100350001261C0F35600C2F3560240F4000042F4AA
:100360000002A0FB022000047F39140400D0401CCE
:1003700050EA124001D44000491EC2B20C0604EB00
:10038000D010401C4008802A02D003E0002010BD9D
:1003900020F00100002900DA0020184310BD30B41D
:1003A00080EA010202F0004530F0004221F00040F6
:1003B00013D090B1C30DD40DC2F31601C0F31600D3
:1003C000E41A41F4000140F400027D34914201D36B
:1003D000641C00E04900002C02DA30BC00207047A9
:1003E0004FF400000023914201D3891A03434008CF
:1003F0004FEA4101F7D151B1914202D14FF0004192
:1004000005E002D24FF0010101E06FF0010103EBC2
:10041000C450284430BC00F0AFBA2DE9FE4F8046EE
:1004200081EA0300C00F0C46009021F0004123F048
:100430000045B8EB0200A94105D24046214690464E
:100440001C460B46024623F00040104347D0270DC0
:10045000C7F30A00C3F30A510290401A01904028E2
:100460006BDAC3F3130040F4801B0098924620B16E
:100470000023D2EB030A63EB0B0B01985946C0F142
:100480004002504600F057FA06460D46504659467F
:10049000019A00F05FFA10EB08006141002487EA3E
:1004A000115284EAE7731A4340D0009A62B3019A6A
:1004B000012A4FEA075215DC001B61EB02014FF0E5
:1004C000004202EA0752CDE90042001C41F58011CA
:1004D00032462B4600F096FA03B0BDE8F08F404656
:1004E0002146F9E7001B61EB0201001C41F5801376
:1004F00000185B412018A2F5001747EB030140EA02
:10050000D570B6196D4111E06D084FEA360645EA1F
:10051000C0754FEA0752001B61EB0201001C41F558
:10052000801149084FEA30000019514132462B46EC
:1005300003B0BDE8F04F00F056BA00980122400029
:100540000023D0EB020263EBE073009821464FEAF0
:10055000E074B8EB000061EB0401E9E783F00043CD
:100560005BE781F0004158E72DE9FE4F81EA030483
:1005700004F0004421F0004100944FF0000B23F000
:10058000004350EA01045ED052EA03045BD0C3F397
:100590000A54C1F30A552C44A4F2F3340194A0FB8D
:1005A0000254C1F3130141F48011C3F3130343F464
:1005B000801301FB024400FB034E840A970A44EABD
:1005C000815447EA8357A4FB076802958D0A05FB0F
:1005D00007854FEA932C04FB0C542705029D4FEA34
:1005E000065847EA1637B5EB08056EEB070C870E81
:1005F000920E47EA811742EA8312A7FB0201B6EB8B
:100600000B0164EB00042B0D43EA0C335E1844EB42
:100610001C50DA465146E7FB0201C5F313044FEACA
:100620000B3343EA14534FEA0432019C43EA0603B6
:10063000A4F10C040294009CCDE900B400F0E2F9AE
:1006400003B0BDE8F08F00200146F9E72DE9F04D39
:1006500081EA030404F0004B21F0004514464FF0FA
:10066000000A23F0004150EA050220D054EA0102BA
:100670001DD0C5F30A570246C5F31303C1F3130097
:10068000C1F30A5640F4801543F48013A7EB060823
:10069000101BD64608F2FD3873EB050002D308F1B3
:1006A000010801E092185B41B8F1000F03DA002065
:1006B0000146BDE8F08D00204FF4801106468446C7
:1006C0000EE0171B73EB050705D3121B63EB050345
:1006D00006434CEA010C49084FEA300092185B418E
:1006E00050EA0107EDD152EA030012D082EA040079
:1006F00083EA0501084305D0101BAB4106D2012255
:10070000002306E000224FF0004302E06FF00102F8
:1007100053101AEB06004CEB085110EB0A0041EBAA
:100720000B01BDE8F04D00F05EB9C10F80EAE0704A
:100730000844CA079623002100F027B99623002217
:10074000114600F022B90EB5C10F80EAE0700844EE
:10075000CA07002140F233438DE80E000A460B46DB
:1007600000F050F903B000BD00F0004220F000405E
:10077000C10DC0F3160040F400007F2901DA00200B
:100780007047962903DCC1F19601C84001E0963913
:100790008840002AF4D04042704720F00040C10D4C
:1007A000C0F3160040F400007F2901DA00207047F2
:1007B000962903DCC1F19601C840704796398840FC
:1007C000704700F0004230F000400AD0C10D01F542
:1007D0006071C0F3160042EA0151C208400711439C
:1007E000704700200146704730B5041E71F10004C7
:1007F00004DB4FF00044404264EB0101141E73F12E
:10080000000405DB1C464FF00043524263EB040337
:100810008B4208BF824230BD30B5041E71F1000426
:1008200004DB4FF00044404264EB0101141E73F1FD
:10083000000405DB1C464FF00043524263EB040307
:10084000994208BF904230BD01F0004330B421F01E
:10085000004150EA010206D00A0DA2F56072C1F310
:100860001301002A02DC30BC00207047440F44EA28
:10087000C104C100E01830BC00EBC25000F07CB8ED
:10088000002801DBC0F10040002901DBC1F100417B
:1008900081427047002801DBC0F10040002901DBE4
:1008A000C1F100418842704730B50B460146002037
:1008B0002022012409E021FA02F59D4205D303FA22
:1008C00002F5491B04FA02F52844151EA2F10102A3
:1008D000F1DC30BD2DE9F05F0546002092469B46D5
:1008E00088460646814640241BE028464146474646
:1008F0002246FFF763FC53465A46C01A914110D373
:1009000011461846224600F016F82D1A67EB01082A
:100910004F4622460120002100F00DF817EB000998
:100920004E41201EA4F10104DFDC484631462A4630
:100930004346BDE8F09F202A04DB203A00FA02F18A
:10094000002070479140C2F1200320FA03F31943BD
:1009500090407047202A06DBCB17203A41FA02F07C
:1009600043EAE07306E041FA02F3D040C2F120020C
:1009700091400843194670470029A8BF7047401CA2
:10098000490008BF20F00100704710B4B0FA80FCA5
:1009900000FA0CF050EA010404BF10BC704749B1E2
:1009A000CCF1200421FA04F411FA0CF118BF012152
:1009B00021430843A3EB0C01CB1D4FEA00614FEA32
:1009C000102042BF002010BC704700EBC350104401
:1009D0000029A4BF10BC7047401C490008BF20F08C
:1009E000010010BC704710B5141E73F1000408DA42
:1009F000401C41F1000192185B411A4301D120F0E3
:100A0000010010BD2DE9F04D92469B4611B1B1FA9F
:100A100081F202E0B0FA80F220329046FFF78BFFBD
:100A200004460F4640EA0A0041EA0B0153465A4683
:100A3000084313D0114653EA010019D0C8F140020F
:100A40005046FFF7BBFB05460E4650465946424608
:100A5000FFF771FF084305D0012004E02046394626
:100A6000BDE8F08D0020054346EAE0762C4337438D
:100A70000A986305E40AA0EB08000022FD0A44EA94
:100A800047540A3002D500200146E9E70105101954
:100A90006941DDE9084500196941BDE8F04DA2E76B
:100AA00070B521F0004303430CD0C1F30A55002474
:100AB000D5EB040564EB0403D617AD1AB34102DB92
:100AC0000020014670BD201841EB025170BDC1F3FA
:100AD0000A52C1F3130140F2FF3341F480119A42EC
:100AE00002DA00200146704740F233439A42A2F2F4
:100AF000334202DC5242FFF761BBFFF71CBF00002C
:100B0000064C074D06E0E06840F0010394E807005A
:100B100098471034AC42F6D3FFF7ECFAF491000892
:100B20001492000870B58C1810F8015B15F00703DB
:100B300001D110F8013B2A1106D110F8012B03E076
:100B400010F8016B01F8016B5B1EF9D12B0705D47E
:100B50000023521E0DD401F8013BFAE710F8013BC7
:100B6000CB1A921C03E013F8015B01F8015B521EE3
:100B7000F9D5A142D8D3002070BD000070B504465D
:100B800000688168C943C9071CD1816821F001014F
:100B9000816001F049F805460FE000BF01F044F81C
:100BA000401B022809D9A06A40F01000A062E06A48
:100BB00040F00100E062012070BD20688068C04301
:100BC000C007EBD0002070BDF8B5002604460096A3
:100BD00000688168C943C90728D0816841F00101D4
:100BE0008160134813490068B0FBF1F000E0401E3B
:100BF00000900028FBD101F017F8054611E000BF76
:100C000001F012F8401B02280BD9A06A40F0100036
:100C1000A062E06A40F00100E06284F824600120F4
:100C2000F8BD20688068C043C007E9D10020F8BD46
:100C3000B812002040420F0070B514460D4606461B
:100C400008E03046711C8EB200F007F8641E05F80B
:100C5000010BA4B2002CF4D170BD10B5044602F013
:100C600037F8200AA02101EB4000C0B201F0F6FFE6
:100C700002F080F8E0B201F0F1FF02F07BF802F040
:100C800027F8A12001F0EAFF02F074F8002001F03B
:100C9000ABFF044602F044F8204610BD70B516467E
:100CA0000C46054606E02178284600F007F86D1C42
:100CB000ADB2641C761EB6B2F5D270BD70B50D46ED
:100CC000044602F005F8200AA02101EB4000C0B262
:100CD00001F0C4FF02F04EF8E0B201F0BFFF02F0F5
:100CE00049F8284601F0BAFF02F044F802F018F87B
:100CF000BDE870400A2007F093B8FEE708B52E4C17
:100D00004FF0FF3529462B466A46002007F0ACFF1E
:100D10000128F7D10098C0B2082830D00EDC012895
:100D200019D0022820D00428ECD100F055F8206812
:100D30000028E7D00023032204211DE020282ED024
:100D4000402832D08028DDD100F05AF80023032259
:100D5000802120681BE000F03FF820680028D1D0F7
:100D600000230322012107E000F036F82068002864
:100D7000C8D000230322022107F098FEC2E700F04A
:100D80002BF820680028BDD000230322082107F09B
:100D90008DFE0028B6D109A006F06EF8B2E700F08B
:100DA0002FF8002303222021D3E700F029F80023A5
:100DB00003224021CDE70000A412002032207365F9
:100DC0006E64206B65792076616C75652066616C58
:100DD00073650D0A0000000070B50122074D140371
:100DE0002146284600F01BFF962007F019F82146FF
:100DF0002846BDE87040002200F011BF000C014001
:100E000070B50122084D14032146284600F007FF63
:100E10004FF4967007F004F821462846BDE870406C
:100E2000002200F0FCBE0000000C014070B5054639
:100E3000C268002014466B6803E06400401C202850
:100E400004DCE61A8E42F8D3202802DD4FF0FF3092
:100E500070BDA2420CD2204606F0ACFFD5E90012CC
:100E60000646FFF7BBF9286806F082FD2E60EC60AD
:100E7000002070BD08B5012269468620FFF7DCFE20
:100E80009DF80000052803D9002001F0A9FF08BD46
:100E90000149087008BD0000451200207FB50122FD
:100EA00069468220FFF7C8FE012201A98320FFF7CF
:100EB000C3FE9DF804009DF80010114C40EA01208B
:100EC00042F20F756080A84202D9322001F0BCFFC7
:100ED000012202A98420FFF7AFFE012203A9852089
:100EE000FFF7AAFE9DF80C009DF8081040EA0120CB
:100EF00000B2A080A84202DD002001F0CFFF7FBD3C
:100F00001C00002070B598B000246D4604EB440628
:100F100005EB860120010C22FFF78EFE15F8260056
:100F2000641CA04204D0002001F0CEFF18B070BDB8
:100F3000E4B2082CEAD3104E002400BF04EB4400B6
:100F400006EB800520010C222946FFF775FE2A7A60
:100F500021460AA005F090FF6A7A21460BA005F011
:100F60008BFF641CE4B2082CE8D3602202490C48D1
:100F7000FFF734F9DAE70000401300205B25645DD9
:100F8000486F7572733D25640D0A00005B25645D32
:100F90004D696E757465733D25640D0A000000008F
:100FA000A015002008B5012269468720FFF744FEFE
:100FB0009DF80000C11E622903D3032001F0D4FF75
:100FC00008BD0149487008BD1C00002010B54FF451
:100FD0007A74224609A10AA004F09CFE224607A1C9
:100FE0000BA004F097FE0FA11548FFF735F9002874
:100FF00003D1204606F014FFF5E710BD4F4B00006B
:1010000041542B43574D4F44453D310D0A000000DC
:1010100041542B43575354415254534D4152540D54
:101020000A000000736D617274636F6E66696720F9
:10103000636F6E6E6563746564207769666900002E
:101040000E170020704710B504460068006806F0CF
:101050008FFC206806F08CFC0020206010BD000092
:1010600070B50078424C434D86B0072829D2DFE89E
:1010700000F004142A3B4C5D6E003F4E306800289F
:101080001FD114223D496846FFF7A8F800216846A1
:1010900006F0DCFE306003200FE0394E3068002897
:1010A0000FD13649142214316846FFF797F8002112
:1010B000684606F0CBFE306004202070286807F0F8
:1010C000DDFB06B070BD2F4E30680028F9D12B49EA
:1010D000142228316846FFF781F80021684606F09F
:1010E000B5FE30600520E8E7274E30680028E8D1DB
:1010F000224914223C316846FFF770F80021684607
:1011000006F0A4FE30600620D7E7204E30680028A5
:10111000D7D11A49142250316846FFF75FF80021F1
:10112000684606F093FE30600720C6E7184E306828
:101130000028C6D11149142264316846FFF74EF8E1
:101140000021684606F082FE30600820B5E7114EA7
:1011500030680028B5D10949142278316846FFF774
:101160003DF80021684606F071FE30600920A4E7D2
:10117000100000201800002040120020488E0008B7
:101180004812002050120020581200206012002047
:101190006C1200207412002070B50646002425460B
:1011A0001E48FFF76BF801461C48FFF73EF81C4944
:1011B000002008700E211BA004F03EFE2AE06420EF
:1011C00006F02EFE1BA11548FFF746F810B16FF090
:1011D000030421E01AA11148FFF73EF808B10024EA
:1011E0001AE01AA10D48FFF737F810B16FF00104AB
:1011F00012E019A10948FFF72FF810B16FF00404AD
:101200000AE018A10548FFF727F810B14FF0FF34A6
:1012100002E06D1CB542D2DB204670BD0E170020E7
:10122000B512002041542B43495053544154555357
:101230000D0A00005354415455533A340000000045
:101240005354415455533A33000000005354415411
:1012500055533A32000000005354415455533A3527
:10126000000000004552524F520000002DE9F041AD
:10127000074615460E4600242048FEF7FFFF0146AC
:101280001E48FEF7D2FF1E49002008701DA127A0AE
:1012900005F0F2FD0C2127A004F0CEFD08E064204B
:1012A00006F0BEFD27A11548FEF7D6FF10B9641C55
:1012B000AC42F4D33146384604F072FA224C206036
:1012C000C82006F0ADFD206803C804F0B5FD4FF45A
:1012D000FA7006F0A5FD2046FFF7B5FEC82006F01F
:1012E0009FFD032119A004F0A7FD322006F098FD10
:1012F000BDE8F04116A10DA005F0BEBD0E170020FF
:10130000B51200205B455350383236365F4465765F
:101310004C696E6B5D454E54455220646576696339
:1013200065206C696E6B2E2E2E00000025730D0A51
:101330000000000041542B43495053454E440D0AD0
:10134000000000003E000000801200202B2B2B002C
:101350005B455350383236365F4465764C696E6B68
:101360005D4558495420646576696365206C696EF3
:101370006B2E2E2E0000000010B51BA005F07CFD8A
:101380004FF4FA7422461AA11AA004F0C3FC1BA061
:1013900005F072FD224616A11DA004F0BBFC40F62C
:1013A000B834204606F03CFD1DA005F065FD224640
:1013B0000FA120A004F0AEFC21A005F05DFD40F6D9
:1013C00098020BA123A004F0A5FC2CA005F054FD6D
:1013D0004FF47A7206A12FA004F09CFCBDE81040E7
:1013E00030A005F049BD00005B41545D0D0A0000CE
:1013F0004F4B000041540D0A000000005B53455460
:101400005F41545F43574D4F44455F315D0D0A00C6
:1014100041542B43574D4F44453D310D0A000000C8
:101420005B4745545F41545F43494653525D0D0A43
:101430000000000041542B43494653520D0A00005E
:101440005B5345545F41545F434950535441525498
:101450005D0D0A0041542B43495053544152543DB1
:1014600022544350222C223138332E3233302E3442
:10147000302E3339222C3837360D0A005B53455451
:101480005F41545F4349504D4F44455F315D0D0A04
:101490000000000041542B4349504D4F44453D311D
:1014A0000D0A0000455350383236365F496E697474
:1014B00020737563636573730D0A000010B5002413
:1014C0001948FEF7DBFE01461748FEF7AEFE174946
:1014D000002008700C2116A004F0AEFC642006F079
:1014E0009FFC17A11048FEF7B7FE10B9641C282C0A
:1014F000F4DB00F053F8134913A004F085F9154903
:10150000086003C804F098FC1248FFF79CFD4FF4F4
:10151000FA7006F085FC03210FA004F08DFCBDE8F5
:101520001040C82006F07CBC0E170020B512002029
:1015300041542B43495053454E440D0A00000000CE
:101540003E000000A01300203530343832303931ED
:1015500035000000801200202B2B2B0010B5094C09
:1015600009A0B4F9041005F087FC0020A080E080F9
:1015700001F094FCB4F90410BDE8104002A005F09D
:101580007BBC00001C000020475F4E6F775F526FEE
:10159000757465203D2025640D0A000000B587B0F4
:1015A0001C216846FEF741FE1E481D490068FEF7F3
:1015B000C4FEFFF7F2F880B26421B0FBF1F23032E2
:1015C0008DF80020B0FBF1F201FB12020A21B2FB00
:1015D000F1F230328DF801202E228DF80220B0FB7E
:1015E000F1F201FB1200303000238DF803008DF87A
:1015F00004304FF400710C48FEF717FE0BA10A48A7
:10160000FEF71EFE0AA10848FEF71AFE69460648C4
:10161000FEF716FE08A10448FEF712FE07B000BD53
:101620000000204134000020A01300202C3B0000CB
:1016300074656D702C0000003B00000070B513480D
:1016400000F05EF9114800F0A9F8FFF77CF84FF0C0
:1016500066320F4BFEF788FFFFF7F6F80546FFF7F7
:10166000B0F80C4A0C4BFEF77CFF06460C460B49C3
:101670002846FEF762FEFFF7A4F832462346FEF73F
:10168000E5FFBDE87040FFF7DFB80000001600205E
:1016900066664A3F52B81E85EB510A4000401C4620
:1016A000F8B50024009490F824202546012A12D091
:1016B000012280F824204A681F23072A0DD20668D9
:1016C000776B521E02EB820293409F430B6893405C
:1016D0001F43776319E00220F8BD06680D2A0AD27D
:1016E000376BD21F02EB820293409F430B689340FB
:1016F0001F43376309E0F76A0D3A02EB8202934019
:101700009F430B6893401F43F7620A6807230668EC
:101710000A2A0AD3F7680A3A02EB420293409F432F
:101720008B6893401F43F76008E0376902EB420281
:1017300093409F438B6893401F4337610A68102A88
:1017400001D0112A20D1124B02689A4217D1936816
:101750001B0219D4936843F40003936009681029AD
:1017600012D10C490C4A0968B1FBF2F101EB81017D
:10177000490000E0491E00910029FBD104E0816A84
:1017800041F020018162012480F824502046F8BDF8
:1017900000240140B812002040420F000068C06CD5
:1017A000704700002DE9F0414FF0000704003D466E
:1017B0007ED0A06A002628B9E66284F8246020461C
:1017C00000F07EF82046FFF7D9F9A16AC90600D4D7
:1017D00020B1A06A40F01000A06269E0A16A21F483
:1017E000885141F00201A1626268E169E3680A433D
:1017F00047EA43010A43A1684FF48077B94209D010
:10180000012907D05FF00001D4F814C0BCF1010F2A
:1018100002D00AE03946F7E7F3B1A36A43F02003A8
:10182000A362E36A43F00103E3622368D3F804C0D0
:101830002CF4694C4CEA010CC3F804C021688B6895
:10184000DFF870C003EA0C0313438B60A168B94250
:101850000BD0012909D00CE0DFF85CC0A3690CEBC8
:1018600043330B4343F40061DFE7218A0D05A5F5FF
:1018700080152168CB6A23F470032B43CB62216867
:1018800089680E4B1940914208D1E662A16A21F0A5
:10189000020141F00101A162BDE8F081A06A20F0DF
:1018A000020040F01000A062E06A40F00100E06237
:1018B0000120F1E7FDF7E1FF00E0FFFFFE0E1FFF53
:1018C00000B500680B4985B0884210D10A4881698B
:1018D00041F4007181618069694600F400700490F0
:1018E0000220009003200190044800F0B5F805B0F4
:1018F00000BD00000024014000100240000C014027
:1019000070B5044690F8240001280DD0012084F819
:1019100024002046FFF758F902004FF0000005D0E0
:1019200084F82400104670BD022070BDA16A40F208
:101930000123994341F48071A1621F4D23681F491F
:10194000AB4218D10E6816F4702F14D0A66A46F474
:101950008016A6620E68760505D5A66A26F400569E
:1019600046F48056A662A66AF6040AD5E66A26F010
:101970000606E66206E0A66A26F48016A6625E689F
:10198000E9E7E06284F824006FF002001860206844
:101990008368C3F34243072B05D1A84208D10968E5
:1019A00011F4702F04D0816841F480118160B9E78F
:1019B000816841F4A001F9E70028014004240140B6
:1019C00010B590F821100024022903D0042181636E
:1019D00001243DE001680A6822F00E020A600168F5
:1019E0000A6822F001020A601A4A0168914201D194
:1019F000012121E0174A1432914201D110211BE04C
:101A0000144A2832914201D1891515E0114A3C321D
:101A1000914201D189140FE00E4A5032914202D115
:101A20004FF4803108E00B4A6432914202D14FF406
:101A3000801101E04FF08071064A083A516001219F
:101A400080F82110002180F82010416B01B18847F7
:101A5000204610BD080002402DE9F84FDFF890A1A4
:101A600000220AF1040B144601274FF00F090BF175
:101A7000040E00BF0B6807FA04F52B40AB4274D18B
:101A8000DFF870C14E68A6EB0C0866452BD00DDC64
:101A9000032E34D005DC36B3012E19D0022E2FD1FF
:101AA0001BE0112E16D0122E2AD119E0B8F5881F8E
:101AB00019D006DCB8F5803F15D0B8F5801F1FD1CE
:101AC00011E0B8F5001F0ED0B8F5041F18D10AE0D8
:101AD000CA6815E0CA68121D12E0CA6808320FE031
:101AE000CA680C320CE08A682AB1012A4FF0080259
:101AF00003D0456104E0042202E0056100E0002219
:101B0000FF2B01D8064601E000F104064FEA8405E8
:101B100001D9A5F12005D6F800C009FA05F82CEA8C
:101B2000080C02FA05F54CEA050CC6F800C04D6831
:101B3000ED0057D5304DAE6946F00106AE61AD6996
:101B400024F0030605F0010500952C4D06EB050C6D
:101B5000DCF80850A6074FEA167809FA08F6B543EC
:101B6000274EB04202D1002610E03BE0254EB042A5
:101B700001D101260AE0244EB04201D1022605E03F
:101B8000224EB04201D1032600E0042606FA08F6F0
:101B90002E43CCF808604D68DAF80060ED03554636
:101BA00001D51E4300E09E432E604D68DBF80060C7
:101BB000AD035D4601D51E4300E09E432E604D6897
:101BC000DEF80060ED02754601D51E4300E09E433D
:101BD0002E604D68AD020E4D2E6801D51E4300E00B
:101BE0009E432E60641C102CFFF444AFBDE8F88FB8
:101BF00000040140000011100010024000000140EC
:101C000000080140000C0140001001400014014098
:101C10000C0401408068084000D0012070470AB1E0
:101C2000016170470904FBE7014800687047000044
:101C3000B012002002480168491C01607047000092
:101C4000B0120020074810B5016841F01001016092
:101C5000032000F093F80F2000F006F800F018F8C9
:101C6000002010BD0020024010B5044607484FF484
:101C70007A710068B0FBF1F000F04FFD00222146C0
:101C8000501E00F05BF8002010BD0000B8120020CC
:101C9000224808B5816941F001018161816901F043
:101CA00001010091C16941F08051C161C06900F03A
:101CB00080500090032000F061F8002211466FF080
:101CC0000B0000F03BF8002211466FF00A0000F014
:101CD00035F8002211466FF0090000F02FF80022BD
:101CE0001146501F00F02AF800221146101F00F084
:101CF00025F800220F21901E00F020F800220F216D
:101D0000501E00F01BF80648416821F0E061416078
:101D1000416841F00071416008BD000000100240C0
:101D20000000014000F01F020121914040098000A5
:101D300000F1E020C0F8001170470000F0B40E4B35
:101D40001B680C46C3F30223C3F10705042D00D919
:101D50000425191D072901D2002300E0DB1E0126FE
:101D600006FA05F1491E214099409E40761E164014
:101D70003143F0BC03F0F3BC0CED00E0064900F089
:101D8000070208684FF6FF03184040EA0220034AA2
:101D900010430860704700000CED00E00000FA05F9
:101DA000014901200862704700000E4210B529A4C5
:101DB00001461DCC86B08DE81D002AA02A4C006883
:101DC00004900020012923D002293AD010291DD1E6
:101DD00061682268D20119D5C1F38342C9031DF895
:101DE000020009D5616804AAC1F34041515C1F4A51
:101DF000B2FBF1F1484301E01D49484361684902E3
:101E000004D440005FF00301B0FBF1F006B010BD58
:101E1000226AC2F30121012903D1920701D5C80327
:101E2000F4E7022905D1626A920702D549F64040DB
:101E3000ECE70329EAD121688903E7D54FF2244072
:101E4000E4E700F04DF96168C1F38131491C4900B4
:101E5000DAE7000002030405060708090A0B0C0D67
:101E60000E0F1010010200000010024000127A0054
:101E700000093D002DE9F84305460078354CC007C0
:101E800054D0E0690026C00008D4E06940F08050DA
:101E9000E061E069012600F0805000902E48016862
:101EA000C90512D40168804641F480710160FFF7D2
:101EB000BBFE074605E000BFFFF7B6FEC01B642867
:101EC00023D8D8F80000C005F6D5206A10F4407079
:101ED00021D0A98801F4407181421CD0206A1F4999
:101EE000012220F440700A6000220A602062C007CC
:101EF00011D0FFF799FE074641F2883808E000BF8D
:101F0000FFF792FEC11B414502D90320BDE8F883CB
:101F1000206A8007F4D5206A696820F4407008437D
:101F200020621EB1E06920F08050E06128788007CF
:101F300005D56068A96820F44040084360602878AF
:101F4000C00605D56068E96820F480000843606039
:101F50000020DBE7001002400070004040044242D5
:101F60002DE9F047DFF83C8105460E46D8F8000021
:101F700000F00700B0420CD2D8F8001021F00701A1
:101F80003143C8F80010D8F8000000F00700B04254
:101F900063D12878444C800705D56068A96820F093
:101FA000F000084360602878C00745D068680128C1
:101FB00016D02168022816D0890700294DDA6168F9
:101FC00021F0030101436160FFF72EFE69680746B7
:101FD00041F2883001290FD00229814619D027E02B
:101FE00021688903E9E78901E7E700BFFFF71CFEE5
:101FF000C11B494501D918E081466068C0F38100E2
:102000000128F3D118E000BFFFF70EFEC11B4945C0
:102010000BD86068C0F381000228F5D10CE000BF46
:10202000FFF702FEC11B494502D90320BDE8F08736
:10203000606810F00C0FF3D1D8F80010404601F0A2
:102040000701B1420BD9016821F00701314301605A
:10205000006800F00700B04201D00120E6E72878D0
:10206000400705D56068E96820F4E06008436060D7
:102070002878000706D56068296920F4605040EA96
:10208000C100606000F03CF86168084AC1F30311C8
:10209000515CC840064908600F20FFF7E5FD0020AD
:1020A000C4E700000020024000100240B08F00088A
:1020B000B81200200148006870470000B8120020E4
:1020C0000448054900684968044AC1F30221515C8B
:1020D000C8407047B812002000100240C08F0008AE
:1020E0000448054900684968044AC1F3C221515CAB
:1020F000C8407047B812002000100240C08F00088E
:1021000010B512A385B00FCB8DE80F0013A0144BB0
:10211000006804905A68134802F00C0104290FD09B
:1021200008290DD1C2F38344D2031DF8041009D548
:102130005A6804ABC2F340429A5CB0FBF2F04843E9
:1021400005B010BD08484843FAE700000203040543
:10215000060708090A0B0C0D0E0F101001020000F3
:102160000010024000127A0000093D002DE9F84FEE
:1021700004460078B94DC00748D06868C0F38100B4
:10218000012807D06868C0F38100022809D1686877
:10219000C00306D52868800338D5606800286FD052
:1021A00034E06068B0F5803F0BD010B1B0F5A02FDF
:1021B00011D0286820F480302860286820F480201E
:1021C00002E0286840F480302860606888B1FFF73A
:1021D0002BFD064609E0286840F480202860F0E7DF
:1021E000FFF722FD801B642875D828688003F7D587
:1021F0000CE0FFF719FD064605E000BFFFF714FDF0
:10220000801B6428F0D828688003F7D42078944E87
:1022100080074FF001094FF000083BD5686810F0C7
:102220000C0F07D06868C0F38100022809D16868E4
:10223000C00306D42868800714D5206901281FD15F
:1022400010E02069B0B1C6F80090FFF7EDFC07463A
:1022500005E000BFFFF7E8FCC01B0228C4D82868CF
:102260008007F7D52868616920F0F80040EAC100CE
:1022700028600FE0C6F80080FFF7D6FC074606E0AE
:10228000E9E000BFFFF7D0FCC01B022823D8286874
:102290008007F7D4207800072CD57248A169D9B1FE
:1022A000C0F80090FFF7C0FC074604E0FFF7BCFC55
:1022B000C01B02280FD8686A8007F7D56A484FF418
:1022C000FA510068B0FBF1F0009000BF0098411E89
:1022D0000091FAD20EE080E0C0F80080FFF7A4FC85
:1022E000074604E0FFF7A0FCC01B022875D8686A07
:1022F0008007F7D42078400760D5E8690027C00040
:1023000008D4E86940F08050E861E869012700F0EE
:102310008050009055480168C90513D40168834670
:1023200041F480710160FFF77FFC824606E000BF48
:10233000FFF77AFCA0EB0A0064284ED8DBF8000017
:10234000C005F5D5E06801280AD008B1052813D0EA
:10235000286A20F001002862286A20F0040002E0C8
:10236000286A40F001002862E06841F2883B98B199
:10237000FFF75AFC82460BE0286A40F0040028620E
:10238000EEE700BFFFF750FCA0EB0A0159455AD811
:10239000286A8007F6D50CE0FFF746FC824605E088
:1023A000FFF742FCA0EB0A0159454CD8286A800788
:1023B000F6D41FB1E86920F08050E861E06988B385
:1023C0006968C1F38101022945D00228C6F86080FE
:1023D00004D0FFF729FC044638E034E0FFF724FC82
:1023E000074604E0FFF720FCC01B02282BD8286812
:1023F0008001F7D4206AB0F5803F05D16868A168F4
:1024000020F4003008436860D4E908010843696893
:1024100021F4741108436860C6F86090FFF704FC6B
:10242000044606E015E000BFFFF7FEFB001B022894
:1024300009D828688001F7D50BE000BFFFF7F4FB4F
:10244000001B022802D90320BDE8F88F286880010C
:10245000F4D40020F8E70120F6E700000010024065
:102460000000424280044242B81200200070004046
:102470002DE9F04791460C465FEA00084AD084B344
:10248000D8F800004068400744D4404603F09AFA68
:102490004FF461620546B0FBF2F1B0FBF2F302FBD0
:1024A00013503C23B0FBF3F0B5FBF2F6607002FB77
:1024B0001650B0FBF3F203FB1200A070182931D3C1
:1024C0001820B1FBF0F7B1FBF0F200FB1210207006
:1024D000404603F070FA411C04D0A84202D9461BC2
:1024E00002E017E04FF0FF36A7EB071000EB4000CB
:1024F000C0EB001005EBC0152946404603F0B1FAC9
:1025000040B9701C01D0711900E03146404603F01B
:1025100094FA10B10120BDE8F0873946404603F037
:10252000BDF900E02170B9F1000F0BD0207803F065
:10253000AAF92070607803F0A6F96070A07803F023
:10254000A2F9A0700020E6E770B5040003D0607C1B
:10255000002610B105E0012070BD2674204600F071
:1025600043F802206074204600F0AEF8042578BBE2
:10257000204603F0EAF958BB2068416821F00701C2
:102580004160A06820B11748016821F00101016095
:102590001448001F0168A26821F4607111430160B2
:1025A0006068411C04D10120FFF700FC80B1401E8F
:1025B00021688A6822F00F0242EA10428A6021688C
:1025C000CA6860F30F02CA60204603F0D9F908B167
:1025D0006574C0E7E67301206073A0736074002027
:1025E00070BD0000306C004008B5006808498842A2
:1025F0000DD1FFF7D5FB0748C16941F00061C1610A
:10260000C069054900F0006000900120086008BD25
:1026100000280040001002403C0442422DE9F041F5
:102620000D46040024D01DB3207C012823D04FF098
:10263000010884F81080022060742878EAB103F061
:1026400019F94FF4616100FB01F6687803F012F9A3
:10265000C0EB001006EB8006A87803F00BF93518E4
:102660002946204603F0FDF90026042710BB0FE0A1
:102670000120BDE8F0810220FBE74FF4616148438F
:102680006978C1EB011100EB8100A9784518E7E7F3
:102690002068416821F005014160204603F08BF974
:1026A000411C0AD0A84208D206490144204603F042
:1026B000C4F910B167742674DAE784F811802674BF
:1026C0000020D6E78051010070B504000AD02068D0
:1026D000416821F008014160FFF7A6FA05464FF472
:1026E0007A7608E0012070BDFFF79EFA401BB042E9
:1026F00001D9032070BD206840680007F4D5002090
:1027000070BD4FF0E0210428086903D020F00400D8
:102710000861704740F00400FAE710B5401EB0F1C0
:10272000807F01D3012010BD4FF0E02460610F21B4
:10273000601703F014F80020A0610720206100203A
:1027400010BD704770B5026804461068D1685369BF
:1027500010F00F0F50D003F0010501F490763543CF
:102760005DD0C20705D0CA0503D5E26B42F0010275
:10277000E263420705D5DA0703D0E26B42F00202BA
:10278000E263820705D5DA0703D0E26B42F0040268
:10279000E263020705D5DA0703D0E26B42F00802D4
:1027A000E263E26B002A33D0800604D5880602D5A6
:1027B000204604F009F920684069E16BC0F38010FD
:1027C000090700D428B3204604F0F0F820684169D6
:1027D00049061AD5416921F040014161606BA0B101
:1027E0001B494163606BFFF7EBF8002810D0606B6A
:1027F000416BBDE870400847830610D58B060ED5A7
:102800002046BDE8704004F0DFB82046FFF799FF8E
:1028100070BD2046FFF795FF0020E06370BD030602
:1028200006D50B0604D52046BDE8704004F0D0B9AB
:102830004006F3D54806F1D5D168204621F0400185
:10284000D160202184F8391000F06FF970BD0000CC
:102850009D69000870B5040004D094F83900002583
:1028600010B106E0012070BD84F83850204600F019
:1028700023F8242084F839002068C16821F400512D
:10288000C160204604F0ECF82068016921F4904111
:1028900001612068416921F02A0141612068C16815
:1028A00041F40051C160E563202084F8390084F8C8
:1028B0003A00002070BD0000F0B503682D4F0220E3
:1028C00000242D4903222D4D460285B0BB4220D164
:1028D0008B6943F480438B618969039201F48041E1
:1028E00004910102CDE9001069462846FFF7B4F8CB
:1028F000CDE90064694628460294FFF7ADF800224E
:1029000005212520FFF71AFA2520FFF70BFA05B05D
:10291000F0BD1B4FBB4211D1CB6943F40033CB61F7
:10292000C969039201F4003104910421CDE900103A
:1029300069462846FFF790F8082013E0114DAB4296
:10294000E5D1CB6943F48023CB61C9690E4D01F415
:102950008021CDE90321CDE9006069462846FFF7D3
:102960007BF8E814CDE90004694628460294FFF795
:1029700073F8CCE700380140001002400008014025
:102980000044004000480040000C014090F83A30FC
:10299000202B22D1F9B1F2B190F83830012B1CD0A4
:1029A00081628285C2850021C163222280F83A209B
:1029B00080F838100168CA6842F48072CA60016801
:1029C0004A6942F001024A610068C16841F0200191
:1029D000C16000207047012070470220704700004E
:1029E00070B5064600681C491C4C884220D11C4D1D
:1029F0002078A1782954401CC2B2A818227010F87F
:102A0000011C0A290ED110F8020C0D280AD14FF62C
:102A1000FF732946134800F02BF80020207028602F
:102A2000686028810D490122891C0E48FFF7AEFF1E
:102A30000D49306888420ED1094A60780A32E1783F
:102A40001154401C6070BDE8704004490122C91C4B
:102A50000648FFF79BBF70BD00380140B41200204C
:102A60000417002044160020004400408416002073
:102A70002DE9F843044690F839001F4616460D46E6
:102A8000202850D1A5B19EB194F8380001284AD031
:102A9000012084F838004FF00008C4F83C80212061
:102AA00084F83900FFF7C0F8A6848146E68426E062
:102AB0000120BDE8F883E08C401EE084A0684B460E
:102AC000B0F5805F4FF000024FF080012046009784
:102AD00003D004F0AEF8E8B90DE004F0AAF8C8B9E4
:102AE00028882168C0F308004860206908B16D1C7F
:102AF00005E0AD1C03E0216815F8010B4860E08C8F
:102B00000028D8D14B46002240212046009704F0EF
:102B100090F808B10320CCE7202084F8390084F82D
:102B200038800020C5E70220C3E7704703A004F007
:102B3000A3F9C82005F074F9F8E700004861726451
:102B40004661756C745F48616E646C65720000006C
:102B500070B5104D4FF40044002221462846FFF77F
:102B60005EF802F0BFFF0022E1110B48FFF757F8B3
:102B7000022004F081FE012221462846FFF74FF88B
:102B8000022004F079FE21462846BDE8704000226C
:102B9000FFF745B8000C01400008014070B5104D2A
:102BA0004FF40044002221462846FFF738F802F08F
:102BB00099FF012211020B48FFF731F8022004F0BF
:102BC0005BFE012221462846FFF729F8022004F087
:102BD00053FE21462846BDE870400022FFF71FB88B
:102BE000000C0140000801402DE9F0478046002418
:102BF00002F068FF174FDFF860A000254FF4004691
:102C00004FF48079002231463846FFF708F8022059
:102C100004F032FE012231463846FFF700F8600624
:102C2000040E49465046FEF7F5FF08B1641CE4B2B5
:102C3000012004F021FE6D1CEDB2082DE2D3B8F1A5
:102C4000000F04D0FFF784FF2046BDE8F087FFF7B0
:102C5000A5FFF9E7000C0140000801402DE9F0470D
:102C6000054602F03FFF184E4FF400470022394658
:102C70003046FEF7D4FFDFF8549000244FF48078FC
:102C8000280601D5012200E0002241464846FEF711
:102C9000C6FF6806050E022004F0EEFD012239464B
:102CA0003046FEF7BCFF022004F0E6FD0022394664
:102CB0003046FEF7B4FF022004F0DEFD641CE4B2EF
:102CC000082CDDD3BDE8F087000C0140000801406E
:102CD0002DE9F04102F006FF01220F4D14022146BA
:102CE0002846FEF79CFF01220C4FD603314638469A
:102CF000FEF795FF042004F0BFFD00222146284680
:102D0000FEF78DFF042004F0B7FD31463846BDE8DC
:102D1000F0410022FEF783BF00080140000C014093
:102D20002DE9F04102F0DEFE104D4FF40044002288
:102D300021462846FEF773FF0D4FE611002231466B
:102D40003846FEF76CFF042004F096FD0122214670
:102D50002846FEF764FF012231463846FEF75FFF42
:102D6000BDE8F041042004F087BD0000000C0140E4
:102D7000000801402DE9F041002402F0A3FE0122E9
:102D8000154E150229463046FEF749FF012004F092
:102D900073FD0122DFF84480D70339464046FEF731
:102DA0003EFF012004F068FD08E0641CE4B2FA2C48
:102DB00004D9FFF7B5FF0120BDE8F0812946304670
:102DC000FEF728FF0028F0D1002239464046FEF7E2
:102DD00026FF0020F0E7000000080140000C014041
:102DE00001B5012269468620FDF758FF02499DF88A
:102DF0000000087008BD00004512002008B501223F
:102E000069468020FDF718FF9DF9000032306528E3
:102E10000CD305208DF80000012269468020FDF7C3
:102E20003DFF012269468020FDF706FF9DF9000065
:102E3000FDF77BFC0249FDF7B2FA0249086008BDC4
:102E400000002041300000207CB5124D010A012213
:102E500068808DF800108DF8040069468220FDF727
:102E60001DFF012201A98320FDF718FF0A4E00244F
:102E700004EB440006EB80016888CA88824204D9CA
:102E8000C88020010C22FDF709FF641CE4B2082C65
:102E9000EED37CBD1C000020401300201CB5094966
:102EA00001228880010A8DF800108DF8040069461F
:102EB0008420FDF7F3FE012201A98520FDF7EEFE37
:102EC0001CBD00001C0000202DE9F0410026012758
:102ED0001A4D1DE000EB4001441C05F8214005EBB4
:102EE000810117220A723B224A728A720E711922DC
:102EF0008A701422CA70CE804F7020B92F710423BB
:102F00002B726E72AE7200010C22FDF7C7FEE0B2AA
:102F10000828DFD30A4D002404EB440005EB8001B0
:102F200020010C22FDF788FE641CE4B2082CF3D3C8
:102F3000BDE8F0410C2103A003F09EBFA0150020C6
:102F400040130020777269746520616C6C205374A3
:102F50007261746567792073756363657373256443
:102F600021210D0A0000000001B5012269468720D9
:102F7000FDF794FE02499DF80000487008BD00006E
:102F80001C00002000F040B82DE9F0410E46074635
:102F9000B024204603F0B6FE102003F0B3FE00205C
:102FA00003F0B0FE0025384603F020FF304603F062
:102FB0001DFF6D1CEDB2802DF5D3641CE4B2B82C5E
:102FC000E7D3BDE8F08100000E4810B500784FF05F
:102FD00000030A284FF02D0208D04421B32001F04D
:102FE000A9FA00232D225421B32007E06421B52043
:102FF00001F0A0FA00232D227421B520BDE8104075
:1030000001F098BA1000002070B50C460546002368
:103010000E221421B72001F08DFA00230F22242163
:10302000B72001F087FA002310223421B72001F0E5
:1030300081FA002311224421B72001F07BFA0023FA
:103040003A225421B72001F0B3FA2146284600F075
:10305000A7F8002328225221B52001F06BFA0023A3
:1030600029226221B52001F065FA002302221421F1
:10307000B32001F05FFABDE8704000230322242151
:10308000B32001F057BA00002DE9F041364C374D1E
:103090000126617811B929782170667032494FF0A4
:1030A0000008092889785CD2DFE800F0050C185B7D
:1030B000335B5B5B3B00BDE8F0412B49891C881EFC
:1030C000FFF760BF41B184F80280BDE8F0412649B6
:1030D000891C881E00F064B8A670F6E7A1B101292A
:1030E0003FD12149891C881E00F05AF820782870A9
:1030F000FFF776FE01F062F940F2DC5004F090FE3A
:10310000BDE8F041FFF760BF2078052829D2401CB8
:1031100005E0002925D12078002822D0401E20700B
:10312000D3E7134F387807281BD112A003F0A4FE71
:1031300000210846FFF728FF002000F0DBFB28787D
:10314000207084F80180022045463870124884F8C7
:103150000280006805F00AFB104861684160656004
:103160000670BDE8F08100005C12002045120020CE
:10317000100000206E6F775F70616765203D3D2015
:1031800044656C61795F496E7370656374696F6ED5
:103190005F706167650D0A0018000020A81200200A
:1031A00038B50C460546302202216846FDF736F850
:1031B0002A7813A1684603F06FFE2078C8B1002377
:1031C0009DF800203A21B52001F0F2F9207801287D
:1031D00011D0002302221421B32001F0ABF9207892
:1031E00001280AD0002303222421B32001F0A2F9F0
:1031F00038BD0123E4E70123ECE70123F3E70000F6
:103200002564000010B50078042826D00024234649
:1032100035220421B72001F0CBF923462E220C21C0
:10322000B72001F0C5F923460E221421B72001F082
:1032300081F923460F222421B72001F07BF9234690
:1032400010223421B72001F075F9234611224421C0
:10325000BDE81040B72001F06DB90124D7E710B5E3
:103260000078032826D00024234634220421B120EC
:1032700001F09EF923462E220C21B12001F098F98D
:1032800023460A221421B12001F054F923460B22CF
:103290002421B12001F04EF923460C223421B12023
:1032A00001F048F923460D224421BDE81040B12029
:1032B00001F040B90124D7E770B50C46054600235C
:1032C0000A221421B72001F035F900230B22242112
:1032D000B72001F02FF900230C223421B72001F090
:1032E00029F900230D224421B72001F023F90023FE
:1032F0003A225421B72001F05BF92146284600F01C
:10330000BDF800232F225421B52001F013F900232A
:1033100002221421B32001F00DF9BDE87040002312
:1033200003222421B32001F005B900002DE9F04764
:10333000424C8046DFF808916078424F012638B948
:1033400049463868FCF7F9FFFDF70EFA2070667001
:103350003A480025B8F1090F80786CD2DFE808F010
:10336000050C176B3C6B6B6B4600BDE8F0473349AF
:10337000891C881E01F06FB838B1A570BDE8F04710
:103380002E49891C881E00F079B8A670F6E7E8B1CE
:10339000012850D12949891C881E00F06FF894F942
:1033A0000000FDF7C2F94946FCF7F9FF3860012239
:1033B00022498020FDF772FC01F000F840F2DC5059
:1033C00004F02EFDBDE8F047FFF7FEBD94F90000C4
:1033D000322830DA401C07E000282CD194F9000094
:1033E00010F1320F27DD401E2070C7E7DFF858804C
:1033F00098F8000006281ED114A003F03DFD00211E
:103400000846FFF7C1FD002000F074FA494638680D
:10341000FCF793FFFDF7A8F920706570022188F88A
:1034200000101448A570006805F0A0F91248616802
:10343000416065600670BDE8F0870000541200200E
:103440000000204130000020100000206E6F775FE8
:1034500070616765203D3D2048554D495F436F6D64
:1034600070656E736174696F6E5F706167650D0A78
:103470000000000018000020A81200207CB50C46B7
:103480000546302205216846FCF7C8FE95F9002064
:10349000002A28DB39A1684603F0FEFC2078E0B161
:1034A0005FF000039DF800202A21B52001F080F88C
:1034B0002078A0B100232E223221B52001F078F827
:1034C000207870B15FF000039DF801203A21B5200B
:1034D00001F06EF8002320222AE00123E2E7012315
:1034E000E9E70123F0E727A1684603F0D5FC20783F
:1034F000A8B300239DF800202A21B52001F058F838
:10350000207868B35FF000039DF801203221B520D8
:1035100001F04EF8207840B300232E223A21B52046
:1035200001F046F8207810B35FF000039DF8022008
:103530004221B52001F03CF82078012819D0002361
:1035400002221421B32000F0F5FF2078012812D0C8
:10355000002303222421B32000F0ECFF7CBD00E017
:1035600001E00123C6E70123CEE70123D5E70123CC
:10357000DCE70123E4E70123EBE7000025303264B8
:1035800000000000253033640000000010B5007812
:10359000022826D00024234633220421B32001F040
:1035A00007F823462E220C21B32001F001F8234610
:1035B00008221421B32000F0BDFF23460922242154
:1035C000B32000F0B7FF234604223421B32000F0DB
:1035D000B1FF234605224421BDE81040B32000F08E
:1035E000A9BF0124D7E730B40A787AB1012A15D0EF
:1035F000022A20D0032A2BD102880A23B2FBF3F43B
:1036000003FB1423092B20D2521C12E0028842F241
:1036100028339A4219D202F57A720AE002884FF4EE
:103620007A73B2FBF3F403FB1423B3F5617F0CD27E
:103630006432028009E002886423B2FBF3F403FBE6
:1036400014235A2B01D20A32F3E730BC00F0C2B87F
:1036500030BC704770B50C46054600230822142183
:10366000B72000F067FF002309222421B72000F0D3
:1036700061FF002304223421B72000F05BFF002308
:1036800005224421B72000F055FF00233A2254219F
:10369000B72000F08DFF2146284600F09BF800235C
:1036A0002E225421B52000F045FF002302221421D0
:1036B000B32000F03FFFBDE8704000230322242127
:1036C000B32000F037BF00002DE9F041344C354FF6
:1036D0004FF00108217819B93988618084F8008099
:1036E000002509285AD2DFE800F0050C1A59345990
:1036F00059593B00BDE8F0412949491C481C00F0DC
:1037000017BF6078042802D2401C607000E065702A
:10371000BDE8F0412249491C481C00F05BB86078C4
:1037200004280FD11E49491C481C00F053F860883A
:10373000FFF78AFB00F042FE40F2DC5004F070FB21
:10374000FFF742FCBDE8F0411549491C481CFFF752
:103750004ABFBDE8F0411249491C481C00F096B828
:10376000114E3078052819D110A003F085FB0021F7
:103770000846FFF709FC002000F0BCF8388860809C
:1037800025700220307011486570006804F0EEFF6B
:103790000F4861684160656080F80080BDE8F08195
:1037A0004C1200201E000020100000206E6F775F7A
:1037B00070616765203D3D204D61785F526F757483
:1037C000655F706167650D0A000000001800002049
:1037D000A81200203EB50C46054630220A21684654
:1037E000FCF71CFD2A8827A1684603F055FB2078CA
:1037F000B0B300239DF800202A21B52000F0D8FEA8
:10380000207801282FD000239DF801203221B520F7
:1038100000F0CEFE2078022827D000239DF8022059
:103820003A21B52000F0C4FE207803281FD00023E1
:103830009DF803204221B52000F0BAFE207804282C
:1038400017D000280BD1002302221421B32000F04E
:1038500071FE002303222421B32000F06BFE3EBD45
:10386000FFE70123C6E70123CEE70123D6E70123C3
:10387000DEE7012302221421B32000F05BFE0123C6
:10388000E8E70000253034640000000030B40A7816
:103890004FF47A7372B1012A12D0022A1AD0032A85
:1038A00025D102880A23B2FBF3F403FB1423DBB116
:1038B000521E0DE002889A4216D3A2F57A7207E0F2
:1038C0000288B2FBF3F403FB1423632B0CD9643A94
:1038D000028009E002886423B2FBF3F403FB1423A3
:1038E000092B01D90A3AF3E730BCFFF773BF30BCAC
:1038F00070470000254910B50A78092844D2DFE84E
:1039000000F0050D14431843434320001F4ABDE84F
:103910001040921C511E481E00F0EABD1B49BDE834
:103920001040891C881EFDF79BBB002A2CD001216A
:1039300002E0072A28D20221BDE81040134800F017
:103940002FB891F90200401C1ED100240C704C705D
:1039500021462046FFF718FB0D48007800F042FF93
:1039600000F0F8FE00F01AFF012000F0ADFE00F0BC
:10397000D5FE0848006804F0F9FE074801210170EF
:1039800006490A6842600C6010BD00003812002031
:103990001C00002014000020A812002018000020A5
:1039A0002DE9F041044690F800C0062005220423CA
:1039B000032502260127BCF1080F7DD2DFE80CF0B9
:1039C00004081827354D5F7602297ED1277005E05F
:1039D00002290BD0012978D100202070204600F068
:1039E0005BF92046BDE8F04100F0D6B8267004E04F
:1039F00002290AD0012968D12770204600F0CCF8AE
:103A00002046BDE8F041FFF7C1BD257018E002294E
:103A100003D0012959D1267012E023702046FFF708
:103A2000F1FB204600F008FA38E0022910D0012905
:103A30004BD12570204600F02FF9204600F0ACF85D
:103A40002046FFF7A3FD2046BDE8F041FFF707BC85
:103A500022702046FFF7D6FB19E002290AD001297F
:103A600033D12370204600F0E7F92046BDE8F0414D
:103A7000FFF7C8BB2070204600F0DEF920E00229E5
:103A80000AD0012921D12270204600F0B7FB204640
:103A9000BDE8F04100F0D0B907202070204600F0CA
:103AA000ADFB2046BDE8F04100F0A8BC02290CD0D7
:103AB00001290AD1207000E007E0204600F09EFCBA
:103AC0002046BDE8F04100F099BBBDE8F08110B59B
:103AD000002326221421B72000F02CFD00232722EA
:103AE0002421B72000F026FD002304223421B72032
:103AF00000F020FD002305224421B72000F01AFD2C
:103B000000233A225421B72000F052FD00F014F8AF
:103B100000232E225421B52000F00CFD01231B228E
:103B20001421B32000F006FD01231C222421BDE84E
:103B30001040B32000F0FEBC0EB530220A216846CA
:103B4000FCF76CFB114812A1007842B2684603F002
:103B5000A3F99DF8002000232A21B52000F028FDBC
:103B60009DF8012000233221B52000F021FD9DF8B1
:103B7000022000233A21B52000F01AFD9DF8032011
:103B800000234221B52000F013FD0EBD20000020CF
:103B9000253034640000000010B50078012826D0DC
:103BA0000024234632220421B52000F001FD2346E3
:103BB0002E220C21B52000F0FBFC23460422142108
:103BC000B52000F0B7FC234605222421B52000F0E3
:103BD000B1FC234606223421B52000F0ABFC23467D
:103BE00007224421BDE81040B52000F0A3BC012409
:103BF000D7E7000010B5092834D2DFE800F005331C
:103C00000933333333331700BDE81040FFF75FBF8C
:103C1000FDF7A4FCFFF790FF00F0D0FB40F2DC5072
:103C200004F0FEF8BDE81040FFF7CEB90E4C207846
:103C3000042817D10DA003F01FF900210846FFF753
:103C4000A3F90020FFF756FE022020700F480068FD
:103C500004F08CFD0E480F4902684A6000220260A1
:103C60000120087010BD0000100000206E6F775F0B
:103C700070616765203D3D20526F7574655F5265C8
:103C80007365745F706167650D0A0000180000209D
:103C900048120020A812002010B5007830B300248C
:103CA000234631220421B72000F082FC23462E2235
:103CB0000C21B72000F07CFC234600221421B72001
:103CC00000F038FC234601222421B72000F032FC0A
:103CD000234602223421B72000F02CFC2346032285
:103CE0004421BDE81040B72000F024BC0124D7E7F0
:103CF0002DE9F041044690F800C006200522042377
:103D0000032502260127BCF1080F7DD2DFE80CF065
:103D1000040B1E2D425A6C85022975D1277020464E
:103D200001F0FEFA1AE002290BD001296CD1002023
:103D30002070204601F0FAFA2046BDE8F04101F07B
:103D4000EFBA2670204601F0F1FA16E002290AD0F7
:103D500001296FD12770204601F0EEFA2046BDE818
:103D6000F04101F0E3BA25701FE002290AD00129D1
:103D700060D12670204601F0E5FA2046BDE8F0410A
:103D800001F0DABA2370204601F0E2FA204601F091
:103D9000E5FA38E0022910D001294BD125702046E0
:103DA00001F0BEFA204601F0C1FA204601F0C4FA43
:103DB0002046BDE8F04101F0C5BA2270204601F06E
:103DC000C7FA19E002290AD0012933D1237020460D
:103DD00001F0C4FA2046BDE8F04101F0B9BA207004
:103DE000204601F0BBFA20E002290AD0012921D1A6
:103DF0002270204601F0B8FA2046BDE8F04101F0FB
:103E0000ADBA0720207000E014E0204601F0ACFAC3
:103E10002046BDE8F04101F0ADBA02290AD00129DF
:103E200008D12070204601F0A5FA2046BDE8F041F7
:103E300001F09ABABDE8F08110B50078052826D0C7
:103E40000024234636220421B52000F0B1FB23468E
:103E50002E220C21B52000F0ABFB23460F221421AB
:103E6000B52000F067FB234612222421B52000F084
:103E700061FB234613223421B52000F05BFB23466F
:103E800014224421BDE81040B52000F053BB0124AA
:103E9000D7E770B50C46054600230F221421B72042
:103EA00000F048FB002312222421B72000F042FB3F
:103EB000002313223421B72000F03CFB00231422FE
:103EC0004421B72000F036FB00233A225421B720CA
:103ED00000F06EFB2146284600F0B0F800230222D5
:103EE0001421B32000F026FBBDE87040002303221C
:103EF0002421B32000F01EBB2DE9F0414A4C0746B7
:103F00000126607828B90022A11C4848FEF7B0FAC3
:103F1000667045480025801C4FF00208092F7DD2AD
:103F2000DFE807F0050C207F487F7F7F6400BDE855
:103F3000F0413D49891C881E01F0AABA94F900009D
:103F400050B1012806D0022802D0032847D106E04C
:103F5000267044E0257042E0032020703FE084F8A2
:103F600000803CE094F9001081B1012909D00229B8
:103F700002D0032933D10EE0017818292FD2491C31
:103F800022E041783B292AD2491C22E081783B2952
:103F900025D2491C22E024490022891C2348FEF72F
:103FA0003DFB00F00BFA40F2DC5003F039FFFFF765
:103FB0000BF814E094F9001069B1012906D0022928
:103FC0000DD1017859B1491E017008E0417831B135
:103FD000491E417003E0817809B1491E8170BDE836
:103FE000F0411149891C881E00F028B8104F38781C
:103FF000082816D100210846FEF7C6FF0020FFF76B
:1040000079FC657087F800800A4884F800800068B1
:1040100004F0ACFB0848A168416000E001E0A56045
:104020000670BDE8F0810000641200203016002008
:104030001000002018000020A81200203EB50D46F8
:104040000446302203216846FCF7E8F830220321B9
:1040500001A8FCF7E3F83022032102A8FCF7DEF800
:1040600095F9002063A1684602F016FF95F901203A
:1040700060A101A802F010FF95F902205DA102A83D
:1040800002F00AFF94F90000022824D001283CD055
:10409000002876D0032837D19DF8002000232A215C
:1040A000B52000F085FA9DF8012000233221B520CB
:1040B00000F07EFA3A2200231146B52000F078FA8B
:1040C0009DF8042000234221B52000F071FA9DF8EC
:1040D0000520002337E09DF8002001232A21B52088
:1040E00000F066FA9DF801200123DFE70222142187
:1040F000B32000F01FFA2078032878D00023032291
:104100002421B32000F016FA3EBD9DF800200023C4
:104110002A21B52000F04CFA9DF80120002332211D
:10412000B52000F045FA3A2200231146B52000F0F0
:104130003FFA9DF8042001234221B52000F038FA0F
:104140009DF8052001234A21B52000F031FA002313
:104150003A225221B52000F02BFA9DF808200023C6
:104160005A21B52000F024FA9DF80920002362218D
:10417000B52000F01DFA2078032836D00023B5E7DB
:10418000FFE79DF8002000232A21B52000F010FA57
:104190009DF8012000233221B52000F009FA3A22CF
:1041A00000231146B52000F003FA9DF804200023F7
:1041B0004221B52000F0FCF99DF8052000234A219A
:1041C000B52000F0F5F900233A225221B52000F085
:1041D000EFF99DF8082001235A21B52000F0E8F9F5
:1041E0009DF809200123C2E701E001237EE70123B6
:1041F00085E70000253032640000000010B500782B
:10420000062826D00024234637220421B32000F0BC
:10421000CFF923462E220C21B32000F0C9F9234602
:1042200004221421B32000F085F92346052224211D
:10423000B32000F07FF9234615223421B32000F08B
:1042400079F9234616224421BDE81040B32000F03E
:1042500071B90124D7E710B50446002304221421C4
:10426000B52000F067F9002305222421B52000F0D5
:1042700061F9002315223421B52000F05BF90023F9
:1042800016224421B52000F055F900233A2254218A
:10429000B52000F08DF92046BDE8104000F068B868
:1042A00070B5264C264D617819B929782170012105
:1042B0006170092840D2DFE800F0050A123F173F7D
:1042C0003F3F2100BDE870401C48FFF7C4BF1B48BA
:1042D00000F04EF82078BDE87040FEF745BE20782B
:1042E000322829D2401C03E02078032824D9401E1C
:1042F0002070BDE87040114800F03AB8114E307897
:10430000092819D110A002F0B7FD00210846FEF7D8
:104310003BFE0020FFF7EEFA28782070002565703C
:10432000022030701148006804F020FA606865606F
:10433000BDE8704003F0A1BD70BD00007012002008
:104340001D000020100000206E6F775F70616765B0
:10435000203D3D205374726F6B696E675F437963D4
:104360006C655F706167650D0A0000001800002031
:1043700038B50446302203216846FBF74FFF227808
:104380000CA1684602F088FD9DF8002001232A2137
:10439000B32000F00DF99DF8012001233221B32054
:1043A00000F006F900232A223A21B32000F0C2F8D7
:1043B00038BD000025303264000000000E4810B502
:1043C00000784FF000030A284FF02B0208D0442158
:1043D000B32000F0AFF800232C225421B32007E0D3
:1043E0006421B52000F0A6F800232C227421B5200A
:1043F000BDE8104000F09EB81000002010B5007815
:10440000072826D00024234638220421B12000F0BA
:10441000CFF823462E220C21B12000F0C9F8234604
:1044200017221421B12000F085F8234618222421F8
:10443000B12000F07FF8234619223421B12000F08A
:1044400079F823461A224421BDE81040B12000F03B
:1044500071B80124D7E7FEF72FBF000010B5234C39
:10446000012210212046FDF7DAFBC82003F0D8FC1A
:10447000002210212046FDF7D2FB4FF4C87003F054
:10448000CFFC012210212046FDF7C9FBC82003F014
:10449000C7FCE32002F036FCA32002F033FCA1208D
:1044A00002F030FCC02002F02DFC2F2002F02AFC8C
:1044B000232002F027FC812002F024FC272002F0B8
:1044C00021FCF82002F01EFC082002F01BFCB020AA
:1044D00002F018FC102002F015FC002002F012FC83
:1044E000BDE81040AF2002F00DBC0000000C014000
:1044F00010B504460078042820460CD2FFF7CCFB08
:104500002046FFF749FB2046FFF740F82046BDE86C
:104510001040FEF7A4BEFEF775FE2046FFF78CFCA8
:104520002046FFF76BFE2046BDE81040FFF766BF50
:10453000FFF790B82DE9F04705461C481F468A460C
:1045400000EB421403F062FFA846A5F1010925E043
:1045500002F0D8FB102141EA1A1002F0D3FB0AF056
:104560000F0002F0CFFB0026002517B1012F03D06A
:1045700008E014F8010B03E014F8010BC043C0B2CB
:1045800002F034FC6D1CEDB2082DEED3761CF6B2B1
:10459000022EE9D3A8F1010000F0FF084046C8450B
:1045A000D6DABDE8F04703F051BF000088020020D2
:1045B0002DE9F047044619481F4600EB02158946CD
:1045C000A5F5007503F022FFA4F101081FE02046C5
:1045D00002F098FB102141EA191002F093FB09F058
:1045E0000F0002F08FFB002617B1012F03D008E067
:1045F00015F8010B03E015F8010BC043C0B202F03F
:10460000F5FB761CF6B2082EEED3641EE4B24445E8
:10461000DDDABDE8F04703F019BF0000880C002088
:104620002DE9FC5F2649FBF788FEFCF7B6F880B25F
:104630006421B0FBF1F28DF80020B0FBF1F201FB38
:1046400012020A21B2FBF1F28DF80120B0FBF1F267
:1046500001FB12008DF80210DFF868B08DF803003E
:104660000024EA464FF0B5081AF8041004F11109C5
:104670000BEB8117404602F045FB09F0FF0002F00A
:1046800041FB002002F03EFB0026002517F8010B3D
:1046900002F0ACFB6D1CEDB2082DF7D3761CF6B220
:1046A000022EF2D3A8F1010000F0FF08B8F1B20F1A
:1046B000E0D2641CE4B2042CD4D3BDE8FC9F00001B
:1046C000000020412809002070B520B1012811D038
:1046D000022820D111E0104D20212846FDF79AFA3A
:1046E000044601212846FDF795FA1CB128B10023A4
:1046F0001D2204E000231F2201E00023202260216C
:10470000B720FFF717FFBDE870400023212270217A
:10471000B720FFF70FBF70BD0008014010B50023A0
:1047200022220421B120FFF705FF002323221421B8
:10473000B120FFF7FFFE00233A222121B120FFF72D
:1047400037FF54220023BDE810401146B120FFF787
:104750002FBF00002DE9F0410F4FB724204602F093
:10476000D1FA102002F0CEFA042002F0CBFA002693
:104770005FF0000517F8010B02F038FB6D1CEDB27D
:10478000082DF7D3761C16F0FF06F1D0641EE4B2B4
:10479000B62CE3D2BDE8F081780200202DE9F0418B
:1047A0000F4FB724204602F0ADFA112002F0AAFA0A
:1047B000002002F0A7FA00265FF0000517F8010BB1
:1047C00002F014FB6D1CEDB2082DF7D3761C16F029
:1047D000FF06F1D0641EE4B2B62CE3D2BDE8F0814E
:1047E0006802002010B504004FF000030ED0002234
:1047F0002021B720FFF79EFE002301223021B720A1
:10480000FFF798FE3034E2B200230CE0332220217F
:10481000B720FFF78FFE002334223021B720FFF7A7
:1048200089FE002320224021BDE81040B720FFF779
:10483000BFBE00002DE9F047154F4FF00008B62429
:1048400008F11009204602F05DFA09F0FF0002F0BD
:1048500059FA082002F056FA0026002517F8010B35
:1048600002F0C4FA6D1CEDB2082DF7D3761CF6B237
:10487000022EF2D3641EE4B2B22CE3D208F101009E
:1048800000F0FF08B8F1060FD9D9BDE8F0870000A5
:10489000380000202DE9F041134FB12002F032FA28
:1048A000112002F02FFA002002F02CFAB524204645
:1048B00002F028FA152002F025FA042002F022FA6C
:1048C0000026002517F8010B02F090FA6D1CEDB2DE
:1048D0000C2DF7D3761CF6B2022EF2D3641EE4B28E
:1048E000B22CE4D2BDE8F081280C00200EB53022B5
:1048F0000A216846FBF792FC114812A1007842B2E7
:10490000684602F0C9FA9DF8002000232721B12053
:10491000FFF74EFE9DF8012000232F21B120FFF765
:1049200047FE9DF8022000233721B120FFF740FE0B
:104930009DF8032000233F21B120FFF739FE0EBD73
:104940002000002025303464000000000EB5302225
:1049500003216846FBF762FC3022032101A8FBF724
:104960005DFC002202A91948FDF782FD9DF908208F
:1049700017A1684602F090FA9DF9092014A101A838
:1049800002F08AFA9DF8002000235C21B120FFF795
:104990000FFE9DF8012000236421B120FFF708FEDF
:1049A00000233A226C21B120FFF702FE9DF804207B
:1049B00000237421B120FFF7FBFD9DF805200023A3
:1049C0007C21B120FFF7F4FD0EBD00003016002061
:1049D000253032640000000070B505780122002403
:1049E0005B484FF47A730A2D0FD2DFE805F005110A
:1049F0001E3F606B7A8997A2097801EB410100EBB9
:104A000081000179012901D0027170BD047170BD6E
:104A1000097801EB410100EB81004178012901D0C7
:104A2000427070BD0221417070BD0978C9B101EBBF
:104A3000410100EB8100027A437A511EC1EB01145F
:104A400003EB840310F8045C10F8034CC5EB051568
:104A50009BB204EB8504042AE6D99C42E4D201729D
:104A600070BD017A0429FBD9491EF8E70978C1B164
:104A700001EB410100EB81010A7A487AC2EB021294
:104A800000EB820311F8044C11F8032CC4EB04145E
:104A900002EB84020028E3D09A42E1D2401E487221
:104AA00070BD417A0029FBD0491E417270BD097862
:104AB00001EB410100EB8101C8889842F6D3A0F5D3
:104AC0007A700CE0097801EB410100EB8101C888A4
:104AD000B0FBF3F203FB1202632AE7D96438C88003
:104AE00070BD0978642201EB410100EB8101C888A7
:104AF000B0FBF2F302FB1302092AF1D90A38EEE700
:104B00000A780A2402EB420200EB8203DA88B2FB45
:104B1000F4F504FB15240CB1521EDA80097801EB80
:104B2000410100EB8101C8780028D9D0401EC8702F
:104B300070BD097801EB410100EB81018878032801
:104B4000F6D9CA78D21C9042F2D9401E887070BD46
:104B5000A015002070B50D46044600231A46042116
:104B6000B720FFF7E7FC002301221421B720FFF74D
:104B7000E1FC287800233130C2B22421B720FFF7AE
:104B800017FD2878224900EB400001EB80000079F6
:104B90000128207822D078B3002325223421B720A1
:104BA000FFF7C8FC207840B3002331224421B7200E
:104BB000FFF7C0FC20780A2826D0002302226421B7
:104BC000B720FFF7B7FC20780A281FD00023BDE8E4
:104BD000704003227421B720FFF7ACBC50B1002312
:104BE00024223421B720FFF7A5FC207830B1002320
:104BF0003022DBE70123F3E702E003E00123F7E7DC
:104C00000123CAE70123D0E70123D7E70123DEE729
:104C1000A015002070B50D46044600233222042161
:104C2000B520FFF787FC142200231146B520FFF7BB
:104C300081FC00233A222421B520FFF7B9FC287813
:104C4000184900EB400001EB8000407801282078F3
:104C500012D0012822D000230A223421B520FFF7E8
:104C600069FC207801281BD000230B22BDE870408E
:104C70004421B520FFF75EBC01280BD0002322227F
:104C80003421B520FFF756FC2078012804D00023FA
:104C90002322EBE70123F2E70123F9E70123DBE716
:104CA0000123E2E7A01500207CB5044608782F4ECA
:104CB00000EB400006EB80000D46027A2CA168460E
:104CC00002F0EAF828782AA100EB400006EB800009
:104CD000427A01A802F0E0F800230F220421B32059
:104CE000FFF728FC002312221421B320FFF722FC37
:104CF00000233A222421B320FFF75AFC207802280F
:104D00002BD000239DF800203421B320FFF750FC66
:104D10002078022823D000239DF801203C21B320D5
:104D2000FFF746FC00233A224421B320FFF740FC62
:104D30002078032815D000239DF804204C21B320AF
:104D4000FFF736FC207803280DD000239DF80520BE
:104D50005421B320FFF72CFC7CBD0123D2E70123B3
:104D6000DAE70123E8E70123F0E70000A0150020BF
:104D700025303264000000007FB504460878684D95
:104D800000EB400005EB80000E464178012964D01D
:104D9000022961D1C27863A102A802F07DF83078BF
:104DA00060A100EB400005EB8000827803A802F0D0
:104DB00073F800230A220421B120FFF7BBFB002374
:104DC0000B221421B120FFF7B5FB00233A22242146
:104DD000B120FFF7EDFB207808287CD05FF00003BE
:104DE0009DF808203421B120FFF7E2FB2078082845
:104DF00072D000239DF809203C21B120FFF7D8FB99
:104E000000232F224421B120FFF794FB00232D2201
:104E10005421B120FFF7CCFB00232D225C21B120CF
:104E2000FFF7C6FB2078092876D000239DF80C20D8
:104E30006421B120FFF7BCFB207809286ED0002345
:104E40009DF80D206C21B120FFF7B2FB00232F222B
:104E50007421B120FFF76EFB7FBDC28833A1684685
:104E600002F01AF8002322220421B120FFF762FB8E
:104E7000002323221421B120FFF75CFB00233A22F8
:104E80002421B120FFF794FB2078042836D000239A
:104E90009DF800203421B120FFF78AFB20780528F7
:104EA0002ED000239DF801203C21B120FFF780FB8C
:104EB0002078062826D000239DF802204421B12026
:104EC000FFF776FB207807281ED000234C219DF8A1
:104ED0000320B12001E01BE01CE0FFF769FB002389
:104EE0002D225421B120FFF725FB00232D22642120
:104EF000B120FFF71FFB00232D22A9E70123C7E7FD
:104F00000123CFE70123D7E70123DFE704E005E032
:104F1000012365E701236DE7012387E701238FE77D
:104F2000A0150020253032640000000025303464D4
:104F3000000000002DE9F041002503263C4C0F46FF
:104F40004FF00108092871D2DFE800F0051745701D
:104F50004A707070540039463548FFF7FBFD3946FA
:104F60003348FFF757FE39463148FFF79DFE394673
:104F7000BDE8F0412E48FFF7FFBE21780A200B293B
:104F800032D2DFE801F006090B0D1D1F2124232476
:104F9000260084F8008027E0022018E0267023E035
:104FA000387800EB4001234800EB8100407801286D
:104FB00002D0022802D017E0042008E0082006E012
:104FC000052004E0062002E0072000E00920207010
:104FD0000AE0257008E03946154800F049F803E07A
:104FE00039461348FFF7F8FC3946BDE8F041104850
:104FF00000F02AB8104F38780A2817D10021084647
:10500000FDF7C2FF002000F0BBF960220B49094800
:10501000FBF7E4F83E700A482570006803F0A6FB31
:10502000084861684160656080F80080BDE8F081F3
:1050300084120020A0150020100000204013002042
:1050400040120020A812002070B50C460546FFF75C
:1050500081FD21462846FFF7DDFD21462846FFF762
:1050600023FE21462846BDE87040FFF785BE0000BC
:1050700070B50D4600780121624C0B2811D2DFE893
:1050800000F006111C27323F51606F858F00287891
:1050900000EB400004EB80000279012A00D10021DE
:1050A000017170BD287800EB400004EB800042786D
:1050B000012A00D10221417070BD287800EB400028
:1050C00004EB8000017A1729F6D2491C017270BDE9
:1050D000287800EB400004EB8001487A3B28F6D2A8
:1050E000401C487270BD287842F2283200EB400024
:1050F00004EB8001C8889042F4D200F57A700FE08A
:1051000028784FF47A7200EB400004EB8001C888E5
:10511000B0FBF2F302FB1302B2F5617FE2D264301E
:10512000C88070BD2878642200EB400004EB800149
:10513000C888B0FBF2F302FB13025A2AF1D20A30FC
:10514000EEE728780A2200EB400004EB8001C888D3
:10515000B0FBF2F302FB1302092AE2D2401CDFE7A4
:10516000287800EB400004EB8001C8783C28D8D2B6
:10517000401CC0B2C8702978C01C01EB410104EB8F
:1051800081018A789042CCD9887070BD287800EB74
:10519000400004EB800188783F28F6D2401CF3E7FA
:1051A000287800EB400104EB8101097909B9FDF78A
:1051B0008BFE287800EB400004EB80004178012949
:1051C00008D1114AC188B2F90020914202DD0F498D
:1051D0000988C18060220B490D48FAF7FFFF287843
:1051E0000C2200EB400104EB81010001FBF756FDAE
:1051F000FFF7E4F840F2DC5002F012FEBDE8704028
:10520000FDF7E2BEA0150020200000201E000020B7
:10521000401300202DE9FC41074610780D469842C6
:1052200001D1012600E000263A4805EB450100EBDC
:10523000810439A1227A684601F02EFE627A36A1F5
:1052400001A801F029FE3135EAB23346042138467F
:10525000FFF7AEF933462E220C213846FFF7A8F9A6
:105260009DF80020334614213846FFF7A1F99DF838
:10527000012033461C213846FFF79AF933463A227B
:1052800024213846FFF794F99DF8042033462C2159
:105290003846FFF78DF99DF805203346342138460E
:1052A000FFF786F9334620223C213846FFF780F984
:1052B0006078012802D0022809D014E03346222267
:1052C00044213846FFF736F93346232207E03346B8
:1052D0000A2244213846FFF72DF933460B22542188
:1052E0003846FFF727F93346202264213846FFF776
:1052F0005FF92079012809D0002805D133462522FD
:105300006C213846FFF716F9BDE8FC8133462422AC
:10531000F6E7000040130020253032640000000052
:10532000002302461946B720FFF774BF0123024647
:105330001946B520FFF76EBF022302461946B32077
:10534000FFF768BF032302461946B120FFF762BF8B
:10535000042302461946B720FFF75CBF0523024627
:105360001946B520FFF756BF062302461946B3205B
:10537000FFF750BF072302461946B120FFF74ABF87
:10538000F0B53C4C3C4D85B02178092845D2DFE88A
:1053900000F005274A444E444444570003290ED8E0
:1053A0003448FFF7BDFF3348FFF7C0FF3148FFF730
:1053B000C3FF05B02F48BDE8F040FFF7C3BF042985
:1053C0002BD32C48FFF7C4FF2A48FFF7C7FF294813
:1053D000FFF7CAFF05B02748BDE8F040FFF7CABF96
:1053E000264E3068002818D10A27C1B101EB4100D0
:1053F000234901EB800010F8080C01280DD1214948
:1054000014226846FAF7EAFE1A49684602F01EFDC1
:1054100030602F70606803F031FA05B0F0BD1949B3
:1054200014221431EDE70029F7D0012102E0072909
:10543000F3D2022105B00F48BDE8F040FEF758BC9A
:1054400028780328E9D100210846FDF79DFD0020BA
:10545000FEF750FA022028700B48002525700068DE
:1054600003F084F9094861684160012165600170B9
:10547000D3E700003C12002010000020881200201A
:1054800040130020D48E000818000020A81200202D
:10549000FEF7FFBC3EB51248002410498460C4608A
:1054A00044610160012505614FF460214460C161E0
:1054B000FCF778F918B10B4801F0DEFCFBE7092096
:1054C000CDE90005694602940548FCF7E9F8002893
:1054D00003D0044801F0D0FCFBE73EBD00240140AE
:1054E00000160020646E00082DE9F043304885B0B6
:1054F000816941F010018161816901F0100104911D
:10550000816941F020018161816901F020010491EC
:10551000816941F004018161816901F00401049114
:10552000816941F0080181618069DFF8888000F0BD
:1055300008000490012223214046FCF770FBDFF8AD
:1055400078904BF2F807002239464846FCF767FB93
:1055500000224FF419414046FCF761FB49F6231045
:10556000012500240226CDE90005CDE90246694661
:105570004046FCF771FAD020CDE900046946404668
:105580000294FCF769FA00970396CDE90154694645
:105590004846FCF761FA4FF44070CDE900046946D3
:1055A00048460294FCF758FA05B0BDE8F0830000C5
:1055B0000010024000080140000C01400C4810B5EA
:1055C0000A4901604FF4E1314160002181600C2201
:1055D000C160C0E904128161C161FDF73BF9002897
:1055E00003D0044801F048FCFBE710BD003801403F
:1055F00044160020646E00080C4810B50A4901608A
:105600004FF4E1314160002181600C22C160C0E9AA
:1056100004128161C161FDF71DF9002803D004481F
:1056200001F02AFCFBE710BD004400408416002076
:10563000646E00080C4810B50A4901604FF4E1316E
:105640004160002181600C22C160C0E904128161C7
:10565000C161FDF7FFF8002803D0044801F00CFCFD
:10566000FBE710BD00480040C4160020646E00082F
:10567000FEE7000010B50E4C20212046FCF7CAFAC8
:1056800001212046FCF7C6FA01280FD1012211465C
:105690002046FCF7C4FA4FF4FA7002F0C1FB204632
:1056A0000022BDE810402021FCF7B9BA10BD00006F
:1056B0000008014070B50E4C20212046FCF7AAFAE4
:1056C000054601212046FCF7A5FA012D0FD1012244
:1056D00020212046FCF7A3FA4FF4FA7002F0A0FB59
:1056E0002046BDE8704000220121FCF798BA70BD49
:1056F000000801402DE9F041164D10212846FCF725
:1057000089FA044620212846FCF784FA074601213D
:105710002846FCF77FFA06460F488188C18007E0DB
:10572000322002F07DFB10212846FCF773FA044674
:10573000012C03D1002FF3D0002EF1D00122202123
:105740002846FCF76CFA2846BDE8F04101221146D4
:10575000FCF765BA000801401C00002070470907EB
:10576000090E002806DA00F00F0000F1E02080F8B2
:10577000141D704700F1E02080F80014704770B5E8
:10578000102002F017FB04464FF48075284602F003
:1057900011FB206000206060C4E90205204670BD56
:1057A0002DE9F0410D460646FFF7E9FF04461021BA
:1057B00001F07FFA3046FAF761FD07462846FAF70E
:1057C0005DFD391820460D3101F0D4FA0DA12046B7
:1057D00001F0E7FA0121204601F06BFA4021204652
:1057E00001F067FA8021204601F0F0FA31462046A8
:1057F00001F0D7FA2946204601F0D3FA2046BDE849
:10580000F0810000454450002DE9F0410D46074667
:10581000FFF7B5FF06462846FAF730FD044680211B
:10582000304601F046FA87B13846FAF727FD0119EC
:105830003046891D01F09EFA8021304601F039FA88
:105840003946304601F0ADFA07E0211D304601F03F
:1058500091FA0021304601F02CFA0521304601F082
:1058600028FA2946304601F09CFA3046BDE8F0811E
:1058700070477047010901EB810100F00F0000EB58
:105880004100C0B27047002102E00A38C0B2491C92
:105890000A28FAD2090740EA116070472DE9F04161
:1058A00004460025C07B627BA37B42E0012A16D020
:1058B000032A14D0052A12D0072A10D0082A0ED0A5
:1058C0000A2A0CD00C2A0AD0042A10D0062A0ED09C
:1058D000092A0CD00B2A0AD0022A0DD028E01F2B4F
:1058E0000CD30C2A05D101221346401C20E01E2BAC
:1058F00004D30123521C1BE01C2B02D203F1010331
:1059000016E011D183B29E0710D16426B3FBF6F7DF
:1059100006FB173636B94FF4C876B3FBF6F706FB2D
:1059200017331BB91D2303E01D2B01D103220123D3
:105930006D1C8D42BAD3D1B2E0736173DAB2A27337
:1059400000F050F82073BDE8F08170B50446FCF714
:105950006BF905464FF47A7606E0FCF765F9401BD3
:10596000B04201D9032070BD206840688006F4D59C
:105970002068416841F010014160002070BD0000C6
:1059800070B504460068416821F010014160FCF7E1
:105990004BF905464FF47A7607E000BFFCF744F96F
:1059A000401BB04201D9032070BD206840688006CA
:1059B000F4D5002070BD0168086A496A89B241EADD
:1059C00000407047006881698AB2C1698BB2816901
:1059D00089B28A4203D0C06961F31F40704743EA2D
:1059E00002407047F0B56424C1EBC1030927A5004C
:1059F000072603EB01130329B3FBF7F100F5FA6067
:105A0000114401440AD2401EB0FBF4F201EB9001B4
:105A1000B0FBF5F0891A0844001D08E0B0FBF4F271
:105A200001EB9001B0FBF5F0891A0844801CB0FB33
:105A3000F6F106FB1100C0B2F0BD70B50D4606468A
:105A40000024FFF782FF48B93168280C08623168EA
:105A5000A8B248623046FFF793FF00B10124204608
:105A600070BD70B50D4606460024FFF76EFF48B9BD
:105A70003168280C88613168A8B2C8613046FFF7E8
:105A80007FFF00B10124204670BD000010B50C4915
:105A9000044600200870FEF7A5FE202C07D0402CFD
:105AA00009D0802C0BD1BDE81040FFF723BEBDE824
:105AB0001040FFF7DFBDBDE81040FFF7FBBD10BD94
:105AC0001C0000201FB54FF4807000900020019052
:105AD00002900220039069460148FBF7BDFF1FBDFD
